{
  "_format": "hh-sol-artifact-1",
  "contractName": "AgrimitraProduct",
  "sourceName": "contracts/AgrimitraProduct.sol",
  "abi": [
    {
      "anonymous": false,
      "inputs": [
        {
          "indexed": true,
          "internalType": "uint256",
          "name": "productId",
          "type": "uint256"
        },
        {
          "indexed": false,
          "internalType": "string",
          "name": "name",
          "type": "string"
        },
        {
          "indexed": false,
          "internalType": "string",
          "name": "farmerEmail",
          "type": "string"
        },
        {
          "indexed": false,
          "internalType": "uint256",
          "name": "quantity",
          "type": "uint256"
        },
        {
          "indexed": false,
          "internalType": "string",
          "name": "unit",
          "type": "string"
        },
        {
          "indexed": false,
          "internalType": "uint256",
          "name": "marketPrice",
          "type": "uint256"
        },
        {
          "indexed": false,
          "internalType": "string",
          "name": "category",
          "type": "string"
        },
        {
          "indexed": false,
          "internalType": "uint256",
          "name": "timestamp",
          "type": "uint256"
        }
      ],
      "name": "ProductAdded",
      "type": "event"
    },
    {
      "inputs": [
        {
          "internalType": "string",
          "name": "_name",
          "type": "string"
        },
        {
          "internalType": "string",
          "name": "_farmerEmail",
          "type": "string"
        },
        {
          "internalType": "uint256",
          "name": "_quantity",
          "type": "uint256"
        },
        {
          "internalType": "string",
          "name": "_unit",
          "type": "string"
        },
        {
          "internalType": "uint256",
          "name": "_marketPrice",
          "type": "uint256"
        },
        {
          "internalType": "uint256",
          "name": "_deliveryCharge",
          "type": "uint256"
        },
        {
          "internalType": "string",
          "name": "_category",
          "type": "string"
        }
      ],
      "name": "addProduct",
      "outputs": [],
      "stateMutability": "nonpayable",
      "type": "function"
    },
    {
      "inputs": [
        {
          "internalType": "uint256",
          "name": "_id",
          "type": "uint256"
        }
      ],
      "name": "getProduct",
      "outputs": [
        {
          "components": [
            {
              "internalType": "uint256",
              "name": "id",
              "type": "uint256"
            },
            {
              "internalType": "string",
              "name": "name",
              "type": "string"
            },
            {
              "internalType": "string",
              "name": "farmerEmail",
              "type": "string"
            },
            {
              "internalType": "uint256",
              "name": "quantity",
              "type": "uint256"
            },
            {
              "internalType": "string",
              "name": "unit",
              "type": "string"
            },
            {
              "internalType": "uint256",
              "name": "marketPrice",
              "type": "uint256"
            },
            {
              "internalType": "uint256",
              "name": "deliveryCharge",
              "type": "uint256"
            },
            {
              "internalType": "string",
              "name": "category",
              "type": "string"
            },
            {
              "internalType": "uint256",
              "name": "timestamp",
              "type": "uint256"
            }
          ],
          "internalType": "struct AgrimitraProduct.Product",
          "name": "",
          "type": "tuple"
        }
      ],
      "stateMutability": "view",
      "type": "function"
    },
    {
      "inputs": [],
      "name": "productCount",
      "outputs": [
        {
          "internalType": "uint256",
          "name": "",
          "type": "uint256"
        }
      ],
      "stateMutability": "view",
      "type": "function"
    },
    {
      "inputs": [
        {
          "internalType": "uint256",
          "name": "",
          "type": "uint256"
        }
      ],
      "name": "products",
      "outputs": [
        {
          "internalType": "uint256",
          "name": "id",
          "type": "uint256"
        },
        {
          "internalType": "string",
          "name": "name",
          "type": "string"
        },
        {
          "internalType": "string",
          "name": "farmerEmail",
          "type": "string"
        },
        {
          "internalType": "uint256",
          "name": "quantity",
          "type": "uint256"
        },
        {
          "internalType": "string",
          "name": "unit",
          "type": "string"
        },
        {
          "internalType": "uint256",
          "name": "marketPrice",
          "type": "uint256"
        },
        {
          "internalType": "uint256",
          "name": "deliveryCharge",
          "type": "uint256"
        },
        {
          "internalType": "string",
          "name": "category",
          "type": "string"
        },
        {
          "internalType": "uint256",
          "name": "timestamp",
          "type": "uint256"
        }
      ],
      "stateMutability": "view",
      "type": "function"
    }
  ],
  "bytecode": "0x608060405234801561001057600080fd5b50611131806100206000396000f3fe608060405234801561001057600080fd5b506004361061004c5760003560e01c80637acc0b2014610051578063b9db15b414610089578063e0f6ef87146100b9578063f3cb716b146100d7575b600080fd5b61006b600480360381019061006691906107ef565b6100f3565b604051610080999897969594939291906108bb565b60405180910390f35b6100a3600480360381019061009e91906107ef565b610361565b6040516100b09190610a97565b60405180910390f35b6100c1610609565b6040516100ce9190610ab9565b60405180910390f35b6100f160048036038101906100ec9190610c09565b61060f565b005b600160205280600052604060002060009150905080600001549080600101805461011c90610d4a565b80601f016020809104026020016040519081016040528092919081815260200182805461014890610d4a565b80156101955780601f1061016a57610100808354040283529160200191610195565b820191906000526020600020905b81548152906001019060200180831161017857829003601f168201915b5050505050908060020180546101aa90610d4a565b80601f01602080910402602001604051908101604052809291908181526020018280546101d690610d4a565b80156102235780601f106101f857610100808354040283529160200191610223565b820191906000526020600020905b81548152906001019060200180831161020657829003601f168201915b50505050509080600301549080600401805461023e90610d4a565b80601f016020809104026020016040519081016040528092919081815260200182805461026a90610d4a565b80156102b75780601f1061028c576101008083540402835291602001916102b7565b820191906000526020600020905b81548152906001019060200180831161029a57829003601f168201915b5050505050908060050154908060060154908060070180546102d890610d4a565b80601f016020809104026020016040519081016040528092919081815260200182805461030490610d4a565b80156103515780601f1061032657610100808354040283529160200191610351565b820191906000526020600020905b81548152906001019060200180831161033457829003601f168201915b5050505050908060080154905089565b610369610759565b6001600083815260200190815260200160002060405180610120016040529081600082015481526020016001820180546103a290610d4a565b80601f01602080910402602001604051908101604052809291908181526020018280546103ce90610d4a565b801561041b5780601f106103f05761010080835404028352916020019161041b565b820191906000526020600020905b8154815290600101906020018083116103fe57829003601f168201915b5050505050815260200160028201805461043490610d4a565b80601f016020809104026020016040519081016040528092919081815260200182805461046090610d4a565b80156104ad5780601f10610482576101008083540402835291602001916104ad565b820191906000526020600020905b81548152906001019060200180831161049057829003601f168201915b50505050508152602001600382015481526020016004820180546104d090610d4a565b80601f01602080910402602001604051908101604052809291908181526020018280546104fc90610d4a565b80156105495780601f1061051e57610100808354040283529160200191610549565b820191906000526020600020905b81548152906001019060200180831161052c57829003601f168201915b50505050508152602001600582015481526020016006820154815260200160078201805461057690610d4a565b80601f01602080910402602001604051908101604052809291908181526020018280546105a290610d4a565b80156105ef5780601f106105c4576101008083540402835291602001916105ef565b820191906000526020600020905b8154815290600101906020018083116105d257829003601f168201915b505050505081526020016008820154815250509050919050565b60005481565b60008081548092919061062190610daa565b9190505550604051806101200160405280600054815260200188815260200187815260200186815260200185815260200184815260200183815260200182815260200142815250600160008054815260200190815260200160002060008201518160000155602082015181600101908161069b9190610f9e565b5060408201518160020190816106b19190610f9e565b506060820151816003015560808201518160040190816106d19190610f9e565b5060a0820151816005015560c0820151816006015560e08201518160070190816106fb9190610f9e565b5061010082015181600801559050506000547f51dbb9705791f7c1b835498f9777d0fe3286f56883639e7933ef36679a7b040e888888888887426040516107489796959493929190611070565b60405180910390a250505050505050565b6040518061012001604052806000815260200160608152602001606081526020016000815260200160608152602001600081526020016000815260200160608152602001600081525090565b6000604051905090565b600080fd5b600080fd5b6000819050919050565b6107cc816107b9565b81146107d757600080fd5b50565b6000813590506107e9816107c3565b92915050565b600060208284031215610805576108046107af565b5b6000610813848285016107da565b91505092915050565b610825816107b9565b82525050565b600081519050919050565b600082825260208201905092915050565b60005b8381101561086557808201518184015260208101905061084a565b60008484015250505050565b6000601f19601f8301169050919050565b600061088d8261082b565b6108978185610836565b93506108a7818560208601610847565b6108b081610871565b840191505092915050565b6000610120820190506108d1600083018c61081c565b81810360208301526108e3818b610882565b905081810360408301526108f7818a610882565b9050610906606083018961081c565b81810360808301526109188188610882565b905061092760a083018761081c565b61093460c083018661081c565b81810360e08301526109468185610882565b905061095661010083018461081c565b9a9950505050505050505050565b61096d816107b9565b82525050565b600082825260208201905092915050565b600061098f8261082b565b6109998185610973565b93506109a9818560208601610847565b6109b281610871565b840191505092915050565b6000610120830160008301516109d66000860182610964565b50602083015184820360208601526109ee8282610984565b91505060408301518482036040860152610a088282610984565b9150506060830151610a1d6060860182610964565b5060808301518482036080860152610a358282610984565b91505060a0830151610a4a60a0860182610964565b5060c0830151610a5d60c0860182610964565b5060e083015184820360e0860152610a758282610984565b915050610100830151610a8c610100860182610964565b508091505092915050565b60006020820190508181036000830152610ab181846109bd565b905092915050565b6000602082019050610ace600083018461081c565b92915050565b600080fd5b600080fd5b7f4e487b7100000000000000000000000000000000000000000000000000000000600052604160045260246000fd5b610b1682610871565b810181811067ffffffffffffffff82111715610b3557610b34610ade565b5b80604052505050565b6000610b486107a5565b9050610b548282610b0d565b919050565b600067ffffffffffffffff821115610b7457610b73610ade565b5b610b7d82610871565b9050602081019050919050565b82818337600083830152505050565b6000610bac610ba784610b59565b610b3e565b905082815260208101848484011115610bc857610bc7610ad9565b5b610bd3848285610b8a565b509392505050565b600082601f830112610bf057610bef610ad4565b5b8135610c00848260208601610b99565b91505092915050565b600080600080600080600060e0888a031215610c2857610c276107af565b5b600088013567ffffffffffffffff811115610c4657610c456107b4565b5b610c528a828b01610bdb565b975050602088013567ffffffffffffffff811115610c7357610c726107b4565b5b610c7f8a828b01610bdb565b9650506040610c908a828b016107da565b955050606088013567ffffffffffffffff811115610cb157610cb06107b4565b5b610cbd8a828b01610bdb565b9450506080610cce8a828b016107da565b93505060a0610cdf8a828b016107da565b92505060c088013567ffffffffffffffff811115610d0057610cff6107b4565b5b610d0c8a828b01610bdb565b91505092959891949750929550565b7f4e487b7100000000000000000000000000000000000000000000000000000000600052602260045260246000fd5b60006002820490506001821680610d6257607f821691505b602082108103610d7557610d74610d1b565b5b50919050565b7f4e487b7100000000000000000000000000000000000000000000000000000000600052601160045260246000fd5b6000610db5826107b9565b91507fffffffffffffffffffffffffffffffffffffffffffffffffffffffffffffffff8203610de757610de6610d7b565b5b600182019050919050565b60008190508160005260206000209050919050565b60006020601f8301049050919050565b600082821b905092915050565b600060088302610e547fffffffffffffffffffffffffffffffffffffffffffffffffffffffffffffffff82610e17565b610e5e8683610e17565b95508019841693508086168417925050509392505050565b6000819050919050565b6000610e9b610e96610e91846107b9565b610e76565b6107b9565b9050919050565b6000819050919050565b610eb583610e80565b610ec9610ec182610ea2565b848454610e24565b825550505050565b600090565b610ede610ed1565b610ee9818484610eac565b505050565b5b81811015610f0d57610f02600082610ed6565b600181019050610eef565b5050565b601f821115610f5257610f2381610df2565b610f2c84610e07565b81016020851015610f3b578190505b610f4f610f4785610e07565b830182610eee565b50505b505050565b600082821c905092915050565b6000610f7560001984600802610f57565b1980831691505092915050565b6000610f8e8383610f64565b9150826002028217905092915050565b610fa78261082b565b67ffffffffffffffff811115610fc057610fbf610ade565b5b610fca8254610d4a565b610fd5828285610f11565b600060209050601f8311600181146110085760008415610ff6578287015190505b6110008582610f82565b865550611068565b601f19841661101686610df2565b60005b8281101561103e57848901518255600182019150602085019450602081019050611019565b8683101561105b5784890151611057601f891682610f64565b8355505b6001600288020188555050505b505050505050565b600060e082019050818103600083015261108a818a610882565b9050818103602083015261109e8189610882565b90506110ad604083018861081c565b81810360608301526110bf8187610882565b90506110ce608083018661081c565b81810360a08301526110e08185610882565b90506110ef60c083018461081c565b9897505050505050505056fea26469706673582212209b3848c5a2903f14a2e949c9922f86f6cd190ed1915bb660bd1bf186a55a955264736f6c63430008140033",
  "linkReferences": {},
  "deployedLinkReferences": {}
}