{
  "_format": "hh-sol-artifact-1",
  "contractName": "AgrimitraOrder",
  "sourceName": "contracts/AgrimitraOrder.sol",
  "abi": [
    {
      "anonymous": false,
      "inputs": [
        {
          "indexed": true,
          "internalType": "uint256",
          "name": "orderId",
          "type": "uint256"
        },
        {
          "indexed": true,
          "internalType": "address",
          "name": "customer",
          "type": "address"
        },
        {
          "indexed": true,
          "internalType": "address",
          "name": "farmer",
          "type": "address"
        },
        {
          "indexed": false,
          "internalType": "string",
          "name": "productName",
          "type": "string"
        },
        {
          "indexed": false,
          "internalType": "uint256",
          "name": "quantity",
          "type": "uint256"
        },
        {
          "indexed": false,
          "internalType": "uint256",
          "name": "totalPrice",
          "type": "uint256"
        }
      ],
      "name": "OrderPlaced",
      "type": "event"
    },
    {
      "inputs": [
        {
          "internalType": "address",
          "name": "",
          "type": "address"
        },
        {
          "internalType": "uint256",
          "name": "",
          "type": "uint256"
        }
      ],
      "name": "customerOrders",
      "outputs": [
        {
          "internalType": "uint256",
          "name": "",
          "type": "uint256"
        }
      ],
      "stateMutability": "view",
      "type": "function"
    },
    {
      "inputs": [
        {
          "internalType": "address",
          "name": "",
          "type": "address"
        },
        {
          "internalType": "uint256",
          "name": "",
          "type": "uint256"
        }
      ],
      "name": "farmerOrders",
      "outputs": [
        {
          "internalType": "uint256",
          "name": "",
          "type": "uint256"
        }
      ],
      "stateMutability": "view",
      "type": "function"
    },
    {
      "inputs": [
        {
          "internalType": "address",
          "name": "_customer",
          "type": "address"
        }
      ],
      "name": "getCustomerOrders",
      "outputs": [
        {
          "internalType": "uint256[]",
          "name": "",
          "type": "uint256[]"
        }
      ],
      "stateMutability": "view",
      "type": "function"
    },
    {
      "inputs": [
        {
          "internalType": "address",
          "name": "_farmer",
          "type": "address"
        }
      ],
      "name": "getFarmerOrders",
      "outputs": [
        {
          "internalType": "uint256[]",
          "name": "",
          "type": "uint256[]"
        }
      ],
      "stateMutability": "view",
      "type": "function"
    },
    {
      "inputs": [],
      "name": "orderCounter",
      "outputs": [
        {
          "internalType": "uint256",
          "name": "",
          "type": "uint256"
        }
      ],
      "stateMutability": "view",
      "type": "function"
    },
    {
      "inputs": [
        {
          "internalType": "uint256",
          "name": "",
          "type": "uint256"
        }
      ],
      "name": "orders",
      "outputs": [
        {
          "internalType": "uint256",
          "name": "orderId",
          "type": "uint256"
        },
        {
          "internalType": "address",
          "name": "customer",
          "type": "address"
        },
        {
          "internalType": "address",
          "name": "farmer",
          "type": "address"
        },
        {
          "internalType": "string",
          "name": "customerName",
          "type": "string"
        },
        {
          "internalType": "string",
          "name": "farmerName",
          "type": "string"
        },
        {
          "internalType": "string",
          "name": "productName",
          "type": "string"
        },
        {
          "internalType": "uint256",
          "name": "quantity",
          "type": "uint256"
        },
        {
          "internalType": "uint256",
          "name": "totalPrice",
          "type": "uint256"
        },
        {
          "internalType": "uint256",
          "name": "timestamp",
          "type": "uint256"
        },
        {
          "internalType": "enum AgrimitraOrder.OrderStatus",
          "name": "status",
          "type": "uint8"
        }
      ],
      "stateMutability": "view",
      "type": "function"
    },
    {
      "inputs": [
        {
          "internalType": "address",
          "name": "_farmer",
          "type": "address"
        },
        {
          "internalType": "string",
          "name": "_customerName",
          "type": "string"
        },
        {
          "internalType": "string",
          "name": "_farmerName",
          "type": "string"
        },
        {
          "internalType": "string",
          "name": "_productName",
          "type": "string"
        },
        {
          "internalType": "uint256",
          "name": "_quantity",
          "type": "uint256"
        },
        {
          "internalType": "uint256",
          "name": "_totalPrice",
          "type": "uint256"
        }
      ],
      "name": "placeOrder",
      "outputs": [],
      "stateMutability": "nonpayable",
      "type": "function"
    },
    {
      "inputs": [
        {
          "internalType": "uint256",
          "name": "_orderId",
          "type": "uint256"
        },
        {
          "internalType": "enum AgrimitraOrder.OrderStatus",
          "name": "_status",
          "type": "uint8"
        }
      ],
      "name": "updateOrderStatus",
      "outputs": [],
      "stateMutability": "nonpayable",
      "type": "function"
    }
  ],
  "bytecode": "0x608060405234801561001057600080fd5b50611772806100206000396000f3fe608060405234801561001057600080fd5b50600436106100885760003560e01c8063a85c38ef1161005b578063a85c38ef14610139578063aab3196d14610172578063aecb8c571461018e578063b789bf52146101be57610088565b80631600c6cd1461008d57806322f974d2146100bd57806344cad531146100ed57806388dc4a0d1461011d575b600080fd5b6100a760048036038101906100a29190610c68565b6101dc565b6040516100b49190610cb7565b60405180910390f35b6100d760048036038101906100d29190610cd2565b61020d565b6040516100e49190610dbd565b60405180910390f35b61010760048036038101906101029190610c68565b6102a4565b6040516101149190610cb7565b60405180910390f35b61013760048036038101906101329190610e44565b6102d5565b005b610153600480360381019061014e9190610f33565b6107c0565b6040516101699a99989796959493929190611076565b60405180910390f35b61018c6004803603810190610187919061114c565b6109f9565b005b6101a860048036038101906101a39190610cd2565b610b2d565b6040516101b59190610dbd565b60405180910390f35b6101c6610bc4565b6040516101d39190610cb7565b60405180910390f35b600260205281600052604060002081815481106101f857600080fd5b90600052602060002001600091509150505481565b6060600260008373ffffffffffffffffffffffffffffffffffffffff1673ffffffffffffffffffffffffffffffffffffffff16815260200190815260200160002080548060200260200160405190810160405280929190818152602001828054801561029857602002820191906000526020600020905b815481526020019060010190808311610284575b50505050509050919050565b600360205281600052604060002081815481106102c057600080fd5b90600052602060002001600091509150505481565b88600073ffffffffffffffffffffffffffffffffffffffff168173ffffffffffffffffffffffffffffffffffffffff1603610345576040517f08c379a000000000000000000000000000000000000000000000000000000000815260040161033c906111d8565b60405180910390fd5b60008311610388576040517f08c379a000000000000000000000000000000000000000000000000000000000815260040161037f90611244565b60405180910390fd5b600082116103cb576040517f08c379a00000000000000000000000000000000000000000000000000000000081526004016103c2906112b0565b60405180910390fd5b6000808154809291906103dd906112ff565b919050555060405180610140016040528060005481526020013373ffffffffffffffffffffffffffffffffffffffff1681526020018b73ffffffffffffffffffffffffffffffffffffffff1681526020018a8a8080601f016020809104026020016040519081016040528093929190818152602001838380828437600081840152601f19601f82011690508083019250505050505050815260200188888080601f016020809104026020016040519081016040528093929190818152602001838380828437600081840152601f19601f82011690508083019250505050505050815260200186868080601f016020809104026020016040519081016040528093929190818152602001838380828437600081840152601f19601f8201169050808301925050505050505081526020018481526020018381526020014281526020016000600481111561053257610531610fff565b5b81525060016000805481526020019081526020016000206000820151816000015560208201518160010160006101000a81548173ffffffffffffffffffffffffffffffffffffffff021916908373ffffffffffffffffffffffffffffffffffffffff16021790555060408201518160020160006101000a81548173ffffffffffffffffffffffffffffffffffffffff021916908373ffffffffffffffffffffffffffffffffffffffff16021790555060608201518160030190816105f69190611582565b50608082015181600401908161060c9190611582565b5060a08201518160050190816106229190611582565b5060c0820151816006015560e0820151816007015561010082015181600801556101208201518160090160006101000a81548160ff0219169083600481111561066e5761066d610fff565b5b0217905550905050600260003373ffffffffffffffffffffffffffffffffffffffff1673ffffffffffffffffffffffffffffffffffffffff1681526020019081526020016000206000549080600181540180825580915050600190039060005260206000200160009091909190915055600360008b73ffffffffffffffffffffffffffffffffffffffff1673ffffffffffffffffffffffffffffffffffffffff16815260200190815260200160002060005490806001815401808255809150506001900390600052602060002001600090919091909150558973ffffffffffffffffffffffffffffffffffffffff163373ffffffffffffffffffffffffffffffffffffffff166000547f1bd6edc5af2e06b3a3810acb4d8ad09d941222c137495eb46820fd1a07ade6b3888888886040516107ac9493929190611690565b60405180910390a450505050505050505050565b60016020528060005260406000206000915090508060000154908060010160009054906101000a900473ffffffffffffffffffffffffffffffffffffffff16908060020160009054906101000a900473ffffffffffffffffffffffffffffffffffffffff1690806003018054610835906113a5565b80601f0160208091040260200160405190810160405280929190818152602001828054610861906113a5565b80156108ae5780601f10610883576101008083540402835291602001916108ae565b820191906000526020600020905b81548152906001019060200180831161089157829003601f168201915b5050505050908060040180546108c3906113a5565b80601f01602080910402602001604051908101604052809291908181526020018280546108ef906113a5565b801561093c5780601f106109115761010080835404028352916020019161093c565b820191906000526020600020905b81548152906001019060200180831161091f57829003601f168201915b505050505090806005018054610951906113a5565b80601f016020809104026020016040519081016040528092919081815260200182805461097d906113a5565b80156109ca5780601f1061099f576101008083540402835291602001916109ca565b820191906000526020600020905b8154815290600101906020018083116109ad57829003601f168201915b5050505050908060060154908060070154908060080154908060090160009054906101000a900460ff1690508a565b60006001600084815260200190815260200160002090508060020160009054906101000a900473ffffffffffffffffffffffffffffffffffffffff1673ffffffffffffffffffffffffffffffffffffffff163373ffffffffffffffffffffffffffffffffffffffff161480610abd57508060010160009054906101000a900473ffffffffffffffffffffffffffffffffffffffff1673ffffffffffffffffffffffffffffffffffffffff163373ffffffffffffffffffffffffffffffffffffffff16145b610afc576040517f08c379a0000000000000000000000000000000000000000000000000000000008152600401610af39061171c565b60405180910390fd5b818160090160006101000a81548160ff02191690836004811115610b2357610b22610fff565b5b0217905550505050565b6060600360008373ffffffffffffffffffffffffffffffffffffffff1673ffffffffffffffffffffffffffffffffffffffff168152602001908152602001600020805480602002602001604051908101604052809291908181526020018280548015610bb857602002820191906000526020600020905b815481526020019060010190808311610ba4575b50505050509050919050565b60005481565b600080fd5b600080fd5b600073ffffffffffffffffffffffffffffffffffffffff82169050919050565b6000610bff82610bd4565b9050919050565b610c0f81610bf4565b8114610c1a57600080fd5b50565b600081359050610c2c81610c06565b92915050565b6000819050919050565b610c4581610c32565b8114610c5057600080fd5b50565b600081359050610c6281610c3c565b92915050565b60008060408385031215610c7f57610c7e610bca565b5b6000610c8d85828601610c1d565b9250506020610c9e85828601610c53565b9150509250929050565b610cb181610c32565b82525050565b6000602082019050610ccc6000830184610ca8565b92915050565b600060208284031215610ce857610ce7610bca565b5b6000610cf684828501610c1d565b91505092915050565b600081519050919050565b600082825260208201905092915050565b6000819050602082019050919050565b610d3481610c32565b82525050565b6000610d468383610d2b565b60208301905092915050565b6000602082019050919050565b6000610d6a82610cff565b610d748185610d0a565b9350610d7f83610d1b565b8060005b83811015610db0578151610d978882610d3a565b9750610da283610d52565b925050600181019050610d83565b5085935050505092915050565b60006020820190508181036000830152610dd78184610d5f565b905092915050565b600080fd5b600080fd5b600080fd5b60008083601f840112610e0457610e03610ddf565b5b8235905067ffffffffffffffff811115610e2157610e20610de4565b5b602083019150836001820283011115610e3d57610e3c610de9565b5b9250929050565b600080600080600080600080600060c08a8c031215610e6657610e65610bca565b5b6000610e748c828d01610c1d565b99505060208a013567ffffffffffffffff811115610e9557610e94610bcf565b5b610ea18c828d01610dee565b985098505060408a013567ffffffffffffffff811115610ec457610ec3610bcf565b5b610ed08c828d01610dee565b965096505060608a013567ffffffffffffffff811115610ef357610ef2610bcf565b5b610eff8c828d01610dee565b94509450506080610f128c828d01610c53565b92505060a0610f238c828d01610c53565b9150509295985092959850929598565b600060208284031215610f4957610f48610bca565b5b6000610f5784828501610c53565b91505092915050565b610f6981610bf4565b82525050565b600081519050919050565b600082825260208201905092915050565b60005b83811015610fa9578082015181840152602081019050610f8e565b60008484015250505050565b6000601f19601f8301169050919050565b6000610fd182610f6f565b610fdb8185610f7a565b9350610feb818560208601610f8b565b610ff481610fb5565b840191505092915050565b7f4e487b7100000000000000000000000000000000000000000000000000000000600052602160045260246000fd5b6005811061103f5761103e610fff565b5b50565b60008190506110508261102e565b919050565b600061106082611042565b9050919050565b61107081611055565b82525050565b60006101408201905061108c600083018d610ca8565b611099602083018c610f60565b6110a6604083018b610f60565b81810360608301526110b8818a610fc6565b905081810360808301526110cc8189610fc6565b905081810360a08301526110e08188610fc6565b90506110ef60c0830187610ca8565b6110fc60e0830186610ca8565b61110a610100830185610ca8565b611118610120830184611067565b9b9a5050505050505050505050565b6005811061113457600080fd5b50565b60008135905061114681611127565b92915050565b6000806040838503121561116357611162610bca565b5b600061117185828601610c53565b925050602061118285828601611137565b9150509250929050565b7f496e76616c696420616464726573730000000000000000000000000000000000600082015250565b60006111c2600f83610f7a565b91506111cd8261118c565b602082019050919050565b600060208201905081810360008301526111f1816111b5565b9050919050565b7f5175616e74697479206d757374206265203e2030000000000000000000000000600082015250565b600061122e601483610f7a565b9150611239826111f8565b602082019050919050565b6000602082019050818103600083015261125d81611221565b9050919050565b7f496e76616c696420707269636500000000000000000000000000000000000000600082015250565b600061129a600d83610f7a565b91506112a582611264565b602082019050919050565b600060208201905081810360008301526112c98161128d565b9050919050565b7f4e487b7100000000000000000000000000000000000000000000000000000000600052601160045260246000fd5b600061130a82610c32565b91507fffffffffffffffffffffffffffffffffffffffffffffffffffffffffffffffff820361133c5761133b6112d0565b5b600182019050919050565b7f4e487b7100000000000000000000000000000000000000000000000000000000600052604160045260246000fd5b7f4e487b7100000000000000000000000000000000000000000000000000000000600052602260045260246000fd5b600060028204905060018216806113bd57607f821691505b6020821081036113d0576113cf611376565b5b50919050565b60008190508160005260206000209050919050565b60006020601f8301049050919050565b600082821b905092915050565b6000600883026114387fffffffffffffffffffffffffffffffffffffffffffffffffffffffffffffffff826113fb565b61144286836113fb565b95508019841693508086168417925050509392505050565b6000819050919050565b600061147f61147a61147584610c32565b61145a565b610c32565b9050919050565b6000819050919050565b61149983611464565b6114ad6114a582611486565b848454611408565b825550505050565b600090565b6114c26114b5565b6114cd818484611490565b505050565b5b818110156114f1576114e66000826114ba565b6001810190506114d3565b5050565b601f82111561153657611507816113d6565b611510846113eb565b8101602085101561151f578190505b61153361152b856113eb565b8301826114d2565b50505b505050565b600082821c905092915050565b60006115596000198460080261153b565b1980831691505092915050565b60006115728383611548565b9150826002028217905092915050565b61158b82610f6f565b67ffffffffffffffff8111156115a4576115a3611347565b5b6115ae82546113a5565b6115b98282856114f5565b600060209050601f8311600181146115ec57600084156115da578287015190505b6115e48582611566565b86555061164c565b601f1984166115fa866113d6565b60005b82811015611622578489015182556001820191506020850194506020810190506115fd565b8683101561163f578489015161163b601f891682611548565b8355505b6001600288020188555050505b505050505050565b82818337600083830152505050565b600061166f8385610f7a565b935061167c838584611654565b61168583610fb5565b840190509392505050565b600060608201905081810360008301526116ab818688611663565b90506116ba6020830185610ca8565b6116c76040830184610ca8565b95945050505050565b7f4e6f7420617574686f72697a6564000000000000000000000000000000000000600082015250565b6000611706600e83610f7a565b9150611711826116d0565b602082019050919050565b60006020820190508181036000830152611735816116f9565b905091905056fea2646970667358221220edae7cdf0dde7118fed833d5d06b64fdfad38aba2e7424a889a3d6320294a2bf64736f6c63430008140033",
  "linkReferences": {},
  "deployedLinkReferences": {}
}