{
  "contractName": "FarmerMarket",
  "abi": [
    {
      "inputs": [
        {
          "internalType": "uint256",
          "name": "",
          "type": "uint256"
        }
      ],
      "name": "products",
      "outputs": [
        {
          "internalType": "string",
          "name": "name",
          "type": "string"
        },
        {
          "internalType": "uint256",
          "name": "quantity",
          "type": "uint256"
        },
        {
          "internalType": "uint256",
          "name": "price",
          "type": "uint256"
        },
        {
          "internalType": "address",
          "name": "farmer",
          "type": "address"
        }
      ],
      "stateMutability": "view",
      "type": "function",
      "constant": true
    },
    {
      "inputs": [
        {
          "internalType": "string",
          "name": "_name",
          "type": "string"
        },
        {
          "internalType": "uint256",
          "name": "_quantity",
          "type": "uint256"
        },
        {
          "internalType": "uint256",
          "name": "_price",
          "type": "uint256"
        }
      ],
      "name": "addProduct",
      "outputs": [],
      "stateMutability": "nonpayable",
      "type": "function"
    },
    {
      "inputs": [
        {
          "internalType": "uint256",
          "name": "index",
          "type": "uint256"
        }
      ],
      "name": "getProduct",
      "outputs": [
        {
          "internalType": "string",
          "name": "",
          "type": "string"
        },
        {
          "internalType": "uint256",
          "name": "",
          "type": "uint256"
        },
        {
          "internalType": "uint256",
          "name": "",
          "type": "uint256"
        },
        {
          "internalType": "address",
          "name": "",
          "type": "address"
        }
      ],
      "stateMutability": "view",
      "type": "function",
      "constant": true
    },
    {
      "inputs": [
        {
          "internalType": "uint256",
          "name": "index",
          "type": "uint256"
        }
      ],
      "name": "buyProduct",
      "outputs": [],
      "stateMutability": "payable",
      "type": "function",
      "payable": true
    },
    {
      "inputs": [],
      "name": "getProductsCount",
      "outputs": [
        {
          "internalType": "uint256",
          "name": "",
          "type": "uint256"
        }
      ],
      "stateMutability": "view",
      "type": "function",
      "constant": true
    }
  ],
  "bytecode": "0x608060405234801561000f575f80fd5b50610cd18061001d5f395ff3fe608060405260043610610049575f3560e01c8063125b0b341461004d5780635786fd40146100755780637acc0b201461009f5780638642269e146100de578063b9db15b4146100fa575b5f80fd5b348015610058575f80fd5b50610073600480360381019061006e919061077b565b610139565b005b348015610080575f80fd5b5061008961020c565b60405161009691906107f6565b60405180910390f35b3480156100aa575f80fd5b506100c560048036038101906100c0919061080f565b610217565b6040516100d594939291906108f3565b60405180910390f35b6100f860048036038101906100f3919061080f565b6102f6565b005b348015610105575f80fd5b50610120600480360381019061011b919061080f565b6104ae565b60405161013094939291906108f3565b60405180910390f35b5f60405180608001604052808581526020018481526020018381526020013373ffffffffffffffffffffffffffffffffffffffff16815250908060018154018082558091505060019003905f5260205f2090600402015f909190919091505f820151815f0190816101aa9190610b37565b5060208201518160010155604082015181600201556060820151816003015f6101000a81548173ffffffffffffffffffffffffffffffffffffffff021916908373ffffffffffffffffffffffffffffffffffffffff1602179055505050505050565b5f8080549050905090565b5f8181548110610225575f80fd5b905f5260205f2090600402015f91509050805f0180546102449061096a565b80601f01602080910402602001604051908101604052809291908181526020018280546102709061096a565b80156102bb5780601f10610292576101008083540402835291602001916102bb565b820191905f5260205f20905b81548152906001019060200180831161029e57829003601f168201915b505050505090806001015490806002015490806003015f9054906101000a900473ffffffffffffffffffffffffffffffffffffffff16905084565b5f80828154811061030a57610309610c06565b5b905f5260205f2090600402016040518060800160405290815f820180546103309061096a565b80601f016020809104026020016040519081016040528092919081815260200182805461035c9061096a565b80156103a75780601f1061037e576101008083540402835291602001916103a7565b820191905f5260205f20905b81548152906001019060200180831161038a57829003601f168201915b505050505081526020016001820154815260200160028201548152602001600382015f9054906101000a900473ffffffffffffffffffffffffffffffffffffffff1673ffffffffffffffffffffffffffffffffffffffff1673ffffffffffffffffffffffffffffffffffffffff168152505090508060400151341015610462576040517f08c379a000000000000000000000000000000000000000000000000000000000815260040161045990610c7d565b60405180910390fd5b806060015173ffffffffffffffffffffffffffffffffffffffff166108fc3490811502906040515f60405180830381858888f193505050501580156104a9573d5f803e3d5ffd5b505050565b60605f805f805f86815481106104c7576104c6610c06565b5b905f5260205f2090600402016040518060800160405290815f820180546104ed9061096a565b80601f01602080910402602001604051908101604052809291908181526020018280546105199061096a565b80156105645780601f1061053b57610100808354040283529160200191610564565b820191905f5260205f20905b81548152906001019060200180831161054757829003601f168201915b505050505081526020016001820154815260200160028201548152602001600382015f9054906101000a900473ffffffffffffffffffffffffffffffffffffffff1673ffffffffffffffffffffffffffffffffffffffff1673ffffffffffffffffffffffffffffffffffffffff16815250509050805f01518160200151826040015183606001519450945094509450509193509193565b5f604051905090565b5f80fd5b5f80fd5b5f80fd5b5f80fd5b5f601f19601f8301169050919050565b7f4e487b71000000000000000000000000000000000000000000000000000000005f52604160045260245ffd5b61065a82610614565b810181811067ffffffffffffffff8211171561067957610678610624565b5b80604052505050565b5f61068b6105fb565b90506106978282610651565b919050565b5f67ffffffffffffffff8211156106b6576106b5610624565b5b6106bf82610614565b9050602081019050919050565b828183375f83830152505050565b5f6106ec6106e78461069c565b610682565b90508281526020810184848401111561070857610707610610565b5b6107138482856106cc565b509392505050565b5f82601f83011261072f5761072e61060c565b5b813561073f8482602086016106da565b91505092915050565b5f819050919050565b61075a81610748565b8114610764575f80fd5b50565b5f8135905061077581610751565b92915050565b5f805f6060848603121561079257610791610604565b5b5f84013567ffffffffffffffff8111156107af576107ae610608565b5b6107bb8682870161071b565b93505060206107cc86828701610767565b92505060406107dd86828701610767565b9150509250925092565b6107f081610748565b82525050565b5f6020820190506108095f8301846107e7565b92915050565b5f6020828403121561082457610823610604565b5b5f61083184828501610767565b91505092915050565b5f81519050919050565b5f82825260208201905092915050565b5f5b83811015610871578082015181840152602081019050610856565b5f8484015250505050565b5f6108868261083a565b6108908185610844565b93506108a0818560208601610854565b6108a981610614565b840191505092915050565b5f73ffffffffffffffffffffffffffffffffffffffff82169050919050565b5f6108dd826108b4565b9050919050565b6108ed816108d3565b82525050565b5f6080820190508181035f83015261090b818761087c565b905061091a60208301866107e7565b61092760408301856107e7565b61093460608301846108e4565b95945050505050565b7f4e487b71000000000000000000000000000000000000000000000000000000005f52602260045260245ffd5b5f600282049050600182168061098157607f821691505b6020821081036109945761099361093d565b5b50919050565b5f819050815f5260205f209050919050565b5f6020601f8301049050919050565b5f82821b905092915050565b5f600883026109f67fffffffffffffffffffffffffffffffffffffffffffffffffffffffffffffffff826109bb565b610a0086836109bb565b95508019841693508086168417925050509392505050565b5f819050919050565b5f610a3b610a36610a3184610748565b610a18565b610748565b9050919050565b5f819050919050565b610a5483610a21565b610a68610a6082610a42565b8484546109c7565b825550505050565b5f90565b610a7c610a70565b610a87818484610a4b565b505050565b5b81811015610aaa57610a9f5f82610a74565b600181019050610a8d565b5050565b601f821115610aef57610ac08161099a565b610ac9846109ac565b81016020851015610ad8578190505b610aec610ae4856109ac565b830182610a8c565b50505b505050565b5f82821c905092915050565b5f610b0f5f1984600802610af4565b1980831691505092915050565b5f610b278383610b00565b9150826002028217905092915050565b610b408261083a565b67ffffffffffffffff811115610b5957610b58610624565b5b610b63825461096a565b610b6e828285610aae565b5f60209050601f831160018114610b9f575f8415610b8d578287015190505b610b978582610b1c565b865550610bfe565b601f198416610bad8661099a565b5f5b82811015610bd457848901518255600182019150602085019450602081019050610baf565b86831015610bf15784890151610bed601f891682610b00565b8355505b6001600288020188555050505b505050505050565b7f4e487b71000000000000000000000000000000000000000000000000000000005f52603260045260245ffd5b7f4e6f7420656e6f7567682045746865722073656e7400000000000000000000005f82015250565b5f610c67601583610844565b9150610c7282610c33565b602082019050919050565b5f6020820190508181035f830152610c9481610c5b565b905091905056fea2646970667358221220c8076ce33ef6cdb1db0fd5faebad4fb6e3619ad5be919fde2ac756cc7e58df4764736f6c63430008150033",
  "immutableReferences": {},
  "source": "// SPDX-License-Identifier: MIT\r\npragma solidity ^0.8.0;\r\n\r\ncontract FarmerMarket {\r\n    struct Product {\r\n        string name;\r\n        uint quantity;\r\n        uint price;\r\n        address farmer;\r\n    }\r\n\r\n    Product[] public products;\r\n\r\n    function addProduct(string memory _name, uint _quantity, uint _price) public {\r\n        products.push(Product(_name, _quantity, _price, msg.sender));\r\n    }\r\n\r\n    function getProduct(uint index) public view returns (string memory, uint, uint, address) {\r\n        Product memory p = products[index];\r\n        return (p.name, p.quantity, p.price, p.farmer);\r\n    }\r\n\r\n    function buyProduct(uint index) public payable {\r\n        Product memory p = products[index];\r\n        require(msg.value >= p.price, \"Not enough Ether sent\");\r\n        payable(p.farmer).transfer(msg.value);\r\n        // Remove product or reduce quantity logic can be added later\r\n    }\r\n\r\n    function getProductsCount() public view returns (uint) {\r\n        return products.length;\r\n    }\r\n}\r\n",
  "sourcePath": "C:\\Users\\shrav\\Documents\\sem7\\major-project\\AgriMitra\\project\\contracts\\FarmMarket.sol",
  "compiler": {
    "name": "solc",
    "version": "0.8.21+commit.d9974bed.Emscripten.clang"
  },
  "schemaVersion": "3.4.16",
  "updatedAt": "2025-11-02T10:25:36.127Z",
  "networkType": "ethereum",
  "devdoc": {
    "kind": "dev",
    "methods": {},
    "version": 1
  },
  "userdoc": {
    "kind": "user",
    "methods": {},
    "version": 1
  }
}